{
  "transactions": [
    {
      "hash": "0x623cf8c19cabc89f5c643788d4a07558d2670703b4c96d546bff1b20ec809e32",
      "transactionType": "CREATE",
      "contractName": "DevOpsTools",
      "contractAddress": "0x198f6a455B00fF6B65f4Fe9Fe8E80321f0E222d6",
      "function": null,
      "arguments": null,
      "transaction": {
        "type": "0x02",
        "from": "0x10c7baa0c18265e60a68e194b902b03788903f5e",
        "gas": "0xebb6e",
        "data": "0x610c7861003a600b82828239805160001a60731461002d57634e487b7160e01b600052600060045260246000fd5b30600052607381538281f3fe730000000000000000000000000000000000000000301460806040526004361061006c5760003560e01c806326dceeb7146100715780632aa1c696146100ae5780633a768463146100e5578063a6066fa514610100578063d76ca83d14610108578063e374cdf11461011b575b600080fd5b81801561007d57600080fd5b5061009161008c366004610897565b61013b565b6040516001600160a01b0390911681526020015b60405180910390f35b6100d86040518060400160405280600b81526020016a0b8bd89c9bd85918d85cdd60aa1b81525081565b6040516100a59190610979565b610091737109709ecfa91a80626ff3989d68f67f5b1dd12d81565b6100d8610507565b6100d861011636600461098c565b610523565b81801561012757600080fd5b506100916101363660046109c1565b6106da565b600061014683610523565b925061015182610523565b60408051600180825281830190925291935060009190816020015b606081526020019060019003908161016c579050509050604051806040016040528060038152602001621c1dd960ea1b815250816000815181106101b2576101b2610a06565b6020908102919091010152604051638916046760e01b8152600090737109709ecfa91a80626ff3989d68f67f5b1dd12d906389160467906101f7908590600401610a1c565b6000604051808303816000875af1158015610216573d6000803e3d6000fd5b505050506040513d6000823e601f3d908101601f1916820160405261023e9190810190610ab5565b60408051600580825260c0820190925291925060009190816020015b606081526020019060019003908161025a579050509050604051806040016040528060048152602001630c4c2e6d60e31b815250816000815181106102a1576102a1610a06565b602002602001018190525081856040516020016102bf929190610afe565b604051602081830303815290604052816001815181106102e1576102e1610a06565b6020026020010181905250878160028151811061030057610300610a06565b602090810291909101015260405163348051d760e11b815260048101889052737109709ecfa91a80626ff3989d68f67f5b1dd12d90636900a3ae90602401600060405180830381865afa15801561035b573d6000803e3d6000fd5b505050506040513d6000823e601f3d908101601f191682016040526103839190810190610ab5565b8160038151811061039657610396610a06565b602002602001018190525081866040516020016103b4929190610b2d565b604051602081830303815290604052816004815181106103d6576103d6610a06565b6020908102919091010152604051638916046760e01b8152600090737109709ecfa91a80626ff3989d68f67f5b1dd12d9063891604679061041b908590600401610a1c565b6000604051808303816000875af115801561043a573d6000803e3d6000fd5b505050506040513d6000823e601f3d908101601f191682016040526104629190810190610ab5565b90506104916040518060400160405280600c81526020016b2932ba3ab937102230ba309d60a11b81525061072c565b61049a81610772565b60006104a582610b69565b60601c905080156104bc5794506104ff9350505050565b60405162461bcd60e51b8152602060048201526014602482015273139bc818dbdb9d1c9858dd0819195c1b1bde595960621b604482015260640160405180910390fd5b949350505050565b604051806060016040528060318152602001610c126031913981565b80516060908290600090815b835181101561057e5783818151811061054a5761054a610a06565b6020910101516001600160f81b031916600160fd1b1461056c5780925061057e565b8061057681610bbb565b91505061052f565b5082515b80156105d85783610594600183610bd4565b815181106105a4576105a4610a06565b6020910101516001600160f81b031916600160fd1b146105c6578091506105d8565b806105d081610be7565b915050610582565b508282815181106105eb576105eb610a06565b01602001516001600160f81b031916601760f91b036106125761060f600183610bfe565b91505b600061061e8383610bd4565b67ffffffffffffffff811115610636576106366107d2565b6040519080825280601f01601f191660200182016040528015610660576020820181803683370190505b50905060005b81518110156106d0578461067a8286610bfe565b8151811061068a5761068a610a06565b602001015160f81c60f81b8282815181106106a7576106a7610a06565b60200101906001600160f81b031916908160001a905350806106c881610bbb565b915050610666565b5095945050505050565b600061072383836040518060400160405280600b81526020016a0b8bd89c9bd85918d85cdd60aa1b815250604051806060016040528060318152602001610c126031913961013b565b90505b92915050565b61076f816040516024016107409190610979565b60408051601f198184030181529190526020810180516001600160e01b031663104c13eb60e21b1790526107b1565b50565b61076f816040516024016107869190610979565b60408051601f198184030181529190526020810180516001600160e01b03166305f3bfab60e11b1790525b80516a636f6e736f6c652e6c6f67602083016000808483855afa5050505050565b634e487b7160e01b600052604160045260246000fd5b604051601f8201601f1916810167ffffffffffffffff81118282101715610811576108116107d2565b604052919050565b600067ffffffffffffffff821115610833576108336107d2565b50601f01601f191660200190565b600082601f83011261085257600080fd5b813561086561086082610819565b6107e8565b81815284602083860101111561087a57600080fd5b816020850160208301376000918101602001919091529392505050565b600080600080608085870312156108ad57600080fd5b843567ffffffffffffffff808211156108c557600080fd5b6108d188838901610841565b95506020870135945060408701359150808211156108ee57600080fd5b6108fa88838901610841565b9350606087013591508082111561091057600080fd5b5061091d87828801610841565b91505092959194509250565b60005b8381101561094457818101518382015260200161092c565b50506000910152565b60008151808452610965816020860160208601610929565b601f01601f19169290920160200192915050565b602081526000610723602083018461094d565b60006020828403121561099e57600080fd5b813567ffffffffffffffff8111156109b557600080fd5b6104ff84828501610841565b600080604083850312156109d457600080fd5b823567ffffffffffffffff8111156109eb57600080fd5b6109f785828601610841565b95602094909401359450505050565b634e487b7160e01b600052603260045260246000fd5b6000602080830181845280855180835260408601915060408160051b870101925083870160005b82811015610a7157603f19888603018452610a5f85835161094d565b94509285019290850190600101610a43565b5092979650505050505050565b6000610a8c61086084610819565b9050828152838383011115610aa057600080fd5b610aae836020830184610929565b9392505050565b600060208284031215610ac757600080fd5b815167ffffffffffffffff811115610ade57600080fd5b8201601f81018413610aef57600080fd5b6104ff84825160208401610a7e565b60008351610b10818460208801610929565b835190830190610b24818360208801610929565b01949350505050565b60008351610b3f818460208801610929565b602f60f81b9083019081528351610b5d816001840160208801610929565b01600101949350505050565b805160208201516bffffffffffffffffffffffff198082169291906014831015610b9d5780818460140360031b1b83161693505b505050919050565b634e487b7160e01b600052601160045260246000fd5b600060018201610bcd57610bcd610ba5565b5060010190565b8181038181111561072657610726610ba5565b600081610bf657610bf6610ba5565b506000190190565b8082018082111561072657610726610ba556fe2e2f6c69622f666f756e6472792d6465766f70732f7372632f6765745f726563656e745f6465706c6f796d656e742e7368a2646970667358221220144a6e7dcde6f1bae9f9c3ab7bfd0a2fff0654b3fc0358b21a9e30b3b3b428fa64736f6c63430008150033",
        "nonce": "0x6",
        "accessList": []
      },
      "additionalContracts": [],
      "isFixedGasLimit": false
    },
    {
      "hash": "0xc17d517ac005a8064b77d3904d1482486b3dd834258c26817e9d02c099d7c99f",
      "transactionType": "CALL",
      "contractName": "VRFCoordinatorV2",
      "contractAddress": "0x8103B0A8A00be2DDC778e6e7eaa21791Cd364625",
      "function": "createSubscription():(uint64)",
      "arguments": [],
      "transaction": {
        "type": "0x02",
        "from": "0x10c7baa0c18265e60a68e194b902b03788903f5e",
        "to": "0x8103b0a8a00be2ddc778e6e7eaa21791cd364625",
        "gas": "0x1558c",
        "value": "0x0",
        "data": "0xa21a23e4",
        "nonce": "0x7",
        "accessList": []
      },
      "additionalContracts": [],
      "isFixedGasLimit": false
    },
    {
      "hash": "0xf325feb90ff955c08da7f693335cf12f25190eb51ae11c910ef1c843fb018e7f",
      "transactionType": "CALL",
      "contractName": "LinkToken",
      "contractAddress": "0x779877A7B0D9E8603169DdbD7836e478b4624789",
      "function": "transferAndCall(address,uint256,bytes):(bool)",
      "arguments": [
        "0x8103B0A8A00be2DDC778e6e7eaa21791Cd364625",
        "3000000000000000000",
        "0x0000000000000000000000000000000000000000000000000000000000001433"
      ],
      "transaction": {
        "type": "0x02",
        "from": "0x10c7baa0c18265e60a68e194b902b03788903f5e",
        "to": "0x779877a7b0d9e8603169ddbd7836e478b4624789",
        "gas": "0x1b43f",
        "value": "0x0",
        "data": "0x4000aea00000000000000000000000008103b0a8a00be2ddc778e6e7eaa21791cd36462500000000000000000000000000000000000000000000000029a2241af62c0000000000000000000000000000000000000000000000000000000000000000006000000000000000000000000000000000000000000000000000000000000000200000000000000000000000000000000000000000000000000000000000001433",
        "nonce": "0x8",
        "accessList": []
      },
      "additionalContracts": [],
      "isFixedGasLimit": false
    },
    {
      "hash": "0x402f08296ea1e75e59cf76928ea0e51706d74a0e42275c38f66b7e4a2d951ef6",
      "transactionType": "CREATE",
      "contractName": "Raffle",
      "contractAddress": "0xCD407791E9caEa3d5Fe01e6Ef0622a8902ad4C99",
      "function": null,
      "arguments": [
        "10000000000000000",
        "30",
        "0x8103B0A8A00be2DDC778e6e7eaa21791Cd364625",
        "0x474e34a077df58807dbe9c96d3c009b23b3c6d0cce433e59bbf5b34f823bc56c",
        "5171",
        "500000"
      ],
      "transaction": {
        "type": "0x02",
        "from": "0x10c7baa0c18265e60a68e194b902b03788903f5e",
        "gas": "0xe10ac",
        "value": "0x0",
        "data": "0x61014060405234801561001157600080fd5b50604051610c59380380610c5983398101604081905261003091610086565b6001600160a01b0393909316608081905260019590955560a0939093526101209390935260c0929092526001600160401b031660e05263ffffffff1661010052426000556003805460ff60a01b19169055610111565b60008060008060008060c0878903121561009f57600080fd5b86516020880151604089015191975095506001600160a01b03811681146100c557600080fd5b6060880151608089015191955093506001600160401b03811681146100e957600080fd5b60a088015190925063ffffffff8116811461010357600080fd5b809150509295509295509295565b60805160a05160c05160e0516101005161012051610af2610167600039600061045e01526000610423015260006103eb015260006103c5015260006104d90152600081816101e001526102220152610af26000f3fe6080604052600436106100915760003560e01c8063378997701161005957806337899770146101205780634585e33b14610135578063473f1ddc146101555780636e04ff0d14610187578063e55ae4e8146101b557600080fd5b806309bc33a7146100965780630ea3df38146100ba578063115cbaf5146100cf5780631fe543e3146100f65780632cfcc53914610118575b600080fd5b3480156100a257600080fd5b506001545b6040519081526020015b60405180910390f35b3480156100c657600080fd5b506002546100a7565b3480156100db57600080fd5b50600354600160a01b900460ff166040516100b191906107ab565b34801561010257600080fd5b5061011661011136600461081a565b6101d5565b005b610116610262565b34801561012c57600080fd5b506000546100a7565b34801561014157600080fd5b506101166101503660046108cc565b610331565b34801561016157600080fd5b506003546001600160a01b03165b6040516001600160a01b0390911681526020016100b1565b34801561019357600080fd5b506101a76101a236600461093e565b6104d1565b6040516100b19291906109d3565b3480156101c157600080fd5b5061016f6101d0366004610a2b565b61057e565b336001600160a01b037f000000000000000000000000000000000000000000000000000000000000000016146102545760405163073e64fd60e21b81523360048201526001600160a01b037f00000000000000000000000000000000000000000000000000000000000000001660248201526044015b60405180910390fd5b61025e82826105ae565b5050565b60015434101561028557604051630994ba8960e11b815260040160405180910390fd5b6000600354600160a01b900460ff1660018111156102a5576102a5610795565b146102c357604051636eac21ed60e01b815260040160405180910390fd5b6002805460018101825560009182527f405787fa12a823e0f2b7631cc41b3ba8828b3321ca811111fa75cd3aa3bb5ace0180546001600160a01b0319163390811790915560405190917f819fbd717c9d0b421352c5116a644ca68ba176960c33f406f08d98a27370ca2791a2565b600061034b604051806020016040528060008152506104d1565b509050806103a157600254600354479190600160a01b900460ff16600181111561037757610377610795565b60405163e059521b60e01b815260048101939093526024830191909152604482015260640161024b565b60038054600160a01b60ff60a01b199091161781556040516305d3b1d360e41b81527f000000000000000000000000000000000000000000000000000000000000000060048201527f000000000000000000000000000000000000000000000000000000000000000067ffffffffffffffff16602482015260448101919091527f000000000000000000000000000000000000000000000000000000000000000063ffffffff166064820152600160848201526001600160a01b037f00000000000000000000000000000000000000000000000000000000000000001690635d3b1d309060a4016020604051808303816000875af11580156104a7573d6000803e3d6000fd5b505050506040513d601f19601f820116820180604052508101906104cb9190610a44565b50505050565b6000606060007f0000000000000000000000000000000000000000000000000000000000000000600054426105069190610a5d565b101590506000600360149054906101000a900460ff16600181111561052d5761052d610795565b600254901591504715159015158380156105445750825b801561054d5750815b80156105565750805b60408051808201909152600381526203078360ec1b6020820152909890975095505050505050565b60006002828154811061059357610593610a84565b6000918252602090912001546001600160a01b031692915050565b6000600280549050826000815181106105c9576105c9610a84565b60200260200101516105db9190610a9a565b90506000600282815481106105f2576105f2610a84565b6000918252602082200154600380546001600160a01b0319166001600160a01b0390921691821790559150604051908082528060200260200182016040528015610646578160200160208202803683370190505b50805161065b9160029160209091019061071b565b506003805460ff60a01b191690554260009081556040516001600160a01b038316917fb112587e57bfa970257f3d54fc52859c6300f6bd7a982462c320fed45c2530ed91a26000816001600160a01b03164760405160006040518083038185875af1925050503d80600081146106ed576040519150601f19603f3d011682016040523d82523d6000602084013e6106f2565b606091505b50509050806107145760405163ba31c4f360e01b815260040160405180910390fd5b5050505050565b828054828255906000526020600020908101928215610770579160200282015b8281111561077057825182546001600160a01b0319166001600160a01b0390911617825560209092019160019091019061073b565b5061077c929150610780565b5090565b5b8082111561077c5760008155600101610781565b634e487b7160e01b600052602160045260246000fd5b60208101600283106107cd57634e487b7160e01b600052602160045260246000fd5b91905290565b634e487b7160e01b600052604160045260246000fd5b604051601f8201601f1916810167ffffffffffffffff81118282101715610812576108126107d3565b604052919050565b6000806040838503121561082d57600080fd5b8235915060208084013567ffffffffffffffff8082111561084d57600080fd5b818601915086601f83011261086157600080fd5b813581811115610873576108736107d3565b8060051b91506108848483016107e9565b818152918301840191848101908984111561089e57600080fd5b938501935b838510156108bc578435825293850193908501906108a3565b8096505050505050509250929050565b600080602083850312156108df57600080fd5b823567ffffffffffffffff808211156108f757600080fd5b818501915085601f83011261090b57600080fd5b81358181111561091a57600080fd5b86602082850101111561092c57600080fd5b60209290920196919550909350505050565b6000602080838503121561095157600080fd5b823567ffffffffffffffff8082111561096957600080fd5b818501915085601f83011261097d57600080fd5b81358181111561098f5761098f6107d3565b6109a1601f8201601f191685016107e9565b915080825286848285010111156109b757600080fd5b8084840185840137600090820190930192909252509392505050565b821515815260006020604081840152835180604085015260005b81811015610a09578581018301518582016060015282016109ed565b506000606082860101526060601f19601f830116850101925050509392505050565b600060208284031215610a3d57600080fd5b5035919050565b600060208284031215610a5657600080fd5b5051919050565b81810381811115610a7e57634e487b7160e01b600052601160045260246000fd5b92915050565b634e487b7160e01b600052603260045260246000fd5b600082610ab757634e487b7160e01b600052601260045260246000fd5b50069056fea2646970667358221220123671c8f7549d58aefc2fc3dda5946c5443f758949662193f23282e47c9403264736f6c63430008150033000000000000000000000000000000000000000000000000002386f26fc10000000000000000000000000000000000000000000000000000000000000000001e0000000000000000000000008103b0a8a00be2ddc778e6e7eaa21791cd364625474e34a077df58807dbe9c96d3c009b23b3c6d0cce433e59bbf5b34f823bc56c0000000000000000000000000000000000000000000000000000000000001433000000000000000000000000000000000000000000000000000000000007a120",
        "nonce": "0x9",
        "accessList": []
      },
      "additionalContracts": [],
      "isFixedGasLimit": false
    },
    {
      "hash": "0x1fd570b3437d3989a712d450a59d644a61923c8946baf26d93155ba86005c52e",
      "transactionType": "CALL",
      "contractName": "VRFCoordinatorV2",
      "contractAddress": "0x8103B0A8A00be2DDC778e6e7eaa21791Cd364625",
      "function": "addConsumer(uint64,address)",
      "arguments": [
        "5171",
        "0xCD407791E9caEa3d5Fe01e6Ef0622a8902ad4C99"
      ],
      "transaction": {
        "type": "0x02",
        "from": "0x10c7baa0c18265e60a68e194b902b03788903f5e",
        "to": "0x8103b0a8a00be2ddc778e6e7eaa21791cd364625",
        "gas": "0x21eb0",
        "value": "0x0",
        "data": "0x7341c10c0000000000000000000000000000000000000000000000000000000000001433000000000000000000000000cd407791e9caea3d5fe01e6ef0622a8902ad4c99",
        "nonce": "0xa",
        "accessList": []
      },
      "additionalContracts": [],
      "isFixedGasLimit": false
    }
  ],
  "receipts": [
    {
      "transactionHash": "0x623cf8c19cabc89f5c643788d4a07558d2670703b4c96d546bff1b20ec809e32",
      "transactionIndex": "0x5",
      "blockHash": "0x21323c5a802990a35ff34be81d4894455ea05a69c4a1bbaf618a1bdf1b171597",
      "blockNumber": "0x413575",
      "from": "0x10C7baa0C18265E60a68E194B902b03788903f5E",
      "to": null,
      "cumulativeGasUsed": "0x1330cd",
      "gasUsed": "0xb55e6",
      "contractAddress": "0x198f6a455B00fF6B65f4Fe9Fe8E80321f0E222d6",
      "logs": [],
      "status": "0x1",
      "logsBloom": "0x00000000000000000000000000000000000000000000000000000000000000000000000000000000000000000000000000000000000000000000000000000000000000000000000000000000000000000000000000000000000000000000000000000000000000000000000000000000000000000000000000000000000000000000000000000000000000000000000000000000000000000000000000000000000000000000000000000000000000000000000000000000000000000000000000000000000000000000000000000000000000000000000000000000000000000000000000000000000000000000000000000000000000000000000000000000",
      "type": "0x2",
      "effectiveGasPrice": "0xbdee1ae9"
    },
    {
      "transactionHash": "0xc17d517ac005a8064b77d3904d1482486b3dd834258c26817e9d02c099d7c99f",
      "transactionIndex": "0x6",
      "blockHash": "0x21323c5a802990a35ff34be81d4894455ea05a69c4a1bbaf618a1bdf1b171597",
      "blockNumber": "0x413575",
      "from": "0x10C7baa0C18265E60a68E194B902b03788903f5E",
      "to": "0x8103B0A8A00be2DDC778e6e7eaa21791Cd364625",
      "cumulativeGasUsed": "0x141a57",
      "gasUsed": "0xe98a",
      "contractAddress": null,
      "logs": [
        {
          "address": "0x8103B0A8A00be2DDC778e6e7eaa21791Cd364625",
          "topics": [
            "0x464722b4166576d3dcbba877b999bc35cf911f4eaf434b7eba68fa113951d0bf",
            "0x0000000000000000000000000000000000000000000000000000000000001433"
          ],
          "data": "0x00000000000000000000000010c7baa0c18265e60a68e194b902b03788903f5e",
          "blockHash": "0x21323c5a802990a35ff34be81d4894455ea05a69c4a1bbaf618a1bdf1b171597",
          "blockNumber": "0x413575",
          "transactionHash": "0xc17d517ac005a8064b77d3904d1482486b3dd834258c26817e9d02c099d7c99f",
          "transactionIndex": "0x6",
          "logIndex": "0xa",
          "removed": false
        }
      ],
      "status": "0x1",
      "logsBloom": "0x0000000000400000000001000000000000000000000000000000000000000000010000000000000000000000000000000000000000000000000000000000000000000000000000000000000000000000000000000000000000000400000000000000000000008000000000000000000000000000000000000000000000000000000000000c000020000000000000000000000000000000000000000000000000000000000000000000000000000000000000000000000000000000000000000000000000000000200000000000000000000000000000000000000000000000000000000000000000000000000000000000000000000000000000000000000000",
      "type": "0x2",
      "effectiveGasPrice": "0xbdee1ae9"
    },
    {
      "transactionHash": "0xf325feb90ff955c08da7f693335cf12f25190eb51ae11c910ef1c843fb018e7f",
      "transactionIndex": "0x7",
      "blockHash": "0x21323c5a802990a35ff34be81d4894455ea05a69c4a1bbaf618a1bdf1b171597",
      "blockNumber": "0x413575",
      "from": "0x10C7baa0C18265E60a68E194B902b03788903f5E",
      "to": "0x779877A7B0D9E8603169DdbD7836e478b4624789",
      "cumulativeGasUsed": "0x1544a1",
      "gasUsed": "0x12a4a",
      "contractAddress": null,
      "logs": [
        {
          "address": "0x779877A7B0D9E8603169DdbD7836e478b4624789",
          "topics": [
            "0xddf252ad1be2c89b69c2b068fc378daa952ba7f163c4a11628f55a4df523b3ef",
            "0x00000000000000000000000010c7baa0c18265e60a68e194b902b03788903f5e",
            "0x0000000000000000000000008103b0a8a00be2ddc778e6e7eaa21791cd364625"
          ],
          "data": "0x00000000000000000000000000000000000000000000000029a2241af62c0000",
          "blockHash": "0x21323c5a802990a35ff34be81d4894455ea05a69c4a1bbaf618a1bdf1b171597",
          "blockNumber": "0x413575",
          "transactionHash": "0xf325feb90ff955c08da7f693335cf12f25190eb51ae11c910ef1c843fb018e7f",
          "transactionIndex": "0x7",
          "logIndex": "0xb",
          "removed": false
        },
        {
          "address": "0x779877A7B0D9E8603169DdbD7836e478b4624789",
          "topics": [
            "0xe19260aff97b920c7df27010903aeb9c8d2be5d310a2c67824cf3f15396e4c16",
            "0x00000000000000000000000010c7baa0c18265e60a68e194b902b03788903f5e",
            "0x0000000000000000000000008103b0a8a00be2ddc778e6e7eaa21791cd364625"
          ],
          "data": "0x00000000000000000000000000000000000000000000000029a2241af62c0000000000000000000000000000000000000000000000000000000000000000004000000000000000000000000000000000000000000000000000000000000000200000000000000000000000000000000000000000000000000000000000001433",
          "blockHash": "0x21323c5a802990a35ff34be81d4894455ea05a69c4a1bbaf618a1bdf1b171597",
          "blockNumber": "0x413575",
          "transactionHash": "0xf325feb90ff955c08da7f693335cf12f25190eb51ae11c910ef1c843fb018e7f",
          "transactionIndex": "0x7",
          "logIndex": "0xc",
          "removed": false
        },
        {
          "address": "0x8103B0A8A00be2DDC778e6e7eaa21791Cd364625",
          "topics": [
            "0xd39ec07f4e209f627a4c427971473820dc129761ba28de8906bd56f57101d4f8",
            "0x0000000000000000000000000000000000000000000000000000000000001433"
          ],
          "data": "0x000000000000000000000000000000000000000000000000000000000000000000000000000000000000000000000000000000000000000029a2241af62c0000",
          "blockHash": "0x21323c5a802990a35ff34be81d4894455ea05a69c4a1bbaf618a1bdf1b171597",
          "blockNumber": "0x413575",
          "transactionHash": "0xf325feb90ff955c08da7f693335cf12f25190eb51ae11c910ef1c843fb018e7f",
          "transactionIndex": "0x7",
          "logIndex": "0xd",
          "removed": false
        }
      ],
      "status": "0x1",
      "logsBloom": "0x0000001400400000000000000000000000000000000000020000000002000000000000000000800000000000000000000000000000002000000000000004000000000000000000000000000800000000000000000000000000002400000000000000000000008000000000000000000000000000400000000000001000000000020000000c000020000000000000800010000020000000000000000000000000000000000000000000000000000000000000000000000000000400000000000000000002000000000000000000000000000000000000000100000000000000000000000000000000000000000000000000000000000000000000000000000000",
      "type": "0x2",
      "effectiveGasPrice": "0xbdee1ae9"
    },
    {
      "transactionHash": "0x402f08296ea1e75e59cf76928ea0e51706d74a0e42275c38f66b7e4a2d951ef6",
      "transactionIndex": "0x8",
      "blockHash": "0x21323c5a802990a35ff34be81d4894455ea05a69c4a1bbaf618a1bdf1b171597",
      "blockNumber": "0x413575",
      "from": "0x10C7baa0C18265E60a68E194B902b03788903f5E",
      "to": null,
      "cumulativeGasUsed": "0x201733",
      "gasUsed": "0xad292",
      "contractAddress": "0xCD407791E9caEa3d5Fe01e6Ef0622a8902ad4C99",
      "logs": [],
      "status": "0x1",
      "logsBloom": "0x00000000000000000000000000000000000000000000000000000000000000000000000000000000000000000000000000000000000000000000000000000000000000000000000000000000000000000000000000000000000000000000000000000000000000000000000000000000000000000000000000000000000000000000000000000000000000000000000000000000000000000000000000000000000000000000000000000000000000000000000000000000000000000000000000000000000000000000000000000000000000000000000000000000000000000000000000000000000000000000000000000000000000000000000000000000",
      "type": "0x2",
      "effectiveGasPrice": "0xbdee1ae9"
    },
    {
      "transactionHash": "0x1fd570b3437d3989a712d450a59d644a61923c8946baf26d93155ba86005c52e",
      "transactionIndex": "0x4",
      "blockHash": "0x60f2f73ee27f97e64b031aad55e9dc1653635c8295c12e63b5ea53e504ce54de",
      "blockNumber": "0x413576",
      "from": "0x10C7baa0C18265E60a68E194B902b03788903f5E",
      "to": "0x8103B0A8A00be2DDC778e6e7eaa21791Cd364625",
      "cumulativeGasUsed": "0x5952c",
      "gasUsed": "0x17312",
      "contractAddress": null,
      "logs": [
        {
          "address": "0x8103B0A8A00be2DDC778e6e7eaa21791Cd364625",
          "topics": [
            "0x43dc749a04ac8fb825cbd514f7c0e13f13bc6f2ee66043b76629d51776cff8e0",
            "0x0000000000000000000000000000000000000000000000000000000000001433"
          ],
          "data": "0x000000000000000000000000cd407791e9caea3d5fe01e6ef0622a8902ad4c99",
          "blockHash": "0x60f2f73ee27f97e64b031aad55e9dc1653635c8295c12e63b5ea53e504ce54de",
          "blockNumber": "0x413576",
          "transactionHash": "0x1fd570b3437d3989a712d450a59d644a61923c8946baf26d93155ba86005c52e",
          "transactionIndex": "0x4",
          "logIndex": "0x6",
          "removed": false
        }
      ],
      "status": "0x1",
      "logsBloom": "0x0000000000400000000000000000000000000000000000000000000000000000000000000000000000000000000000000000000000000000000000000000000000000000000000000000000000000000000000000000000000000400000000000000000000008000000000000000000000000000000000000000000000000000000000000c000020000000000000000000000000000000000000000000000000000000000000000000000080000000000000000000000000000000000000000000000000000000000000000000000000000000000000000000020000000000000000000000000000000000000000000000000000000000000000000000000000",
      "type": "0x2",
      "effectiveGasPrice": "0xbf4f127c"
    }
  ],
  "libraries": [
    "lib/foundry-devops/src/DevOpsTools.sol:DevOpsTools:0x198f6a455b00ff6b65f4fe9fe8e80321f0e222d6"
  ],
  "pending": [],
  "returns": {
    "0": {
      "internal_type": "contract Raffle",
      "value": "0xCD407791E9caEa3d5Fe01e6Ef0622a8902ad4C99"
    },
    "1": {
      "internal_type": "contract HelperConfig",
      "value": "0xC7f2Cf4845C6db0e1a1e91ED41Bcd0FcC1b0E141"
    }
  },
  "timestamp": 1694518778,
  "chain": 11155111,
  "multi": false,
  "commit": "bc0e5ff"
}